S02400005531315F50726F6A6563745F456E7472616E63655F4543555F2831292E7372656367
S11300000C942A000C9447000C9447000C9447006D
S11300100C9447000C9447000C9447000C94470040
S11300200C9447000C9447000C947E030C94A50395
S11300300C94F9020C94B9040C9447000C94E00459
S11300400C9447000C9447000C9447000C94470010
S11300500C94470011241FBECFE5D8E0DEBFCDBF0E
S113006011E0A0E6B0E0E8E4F0E102C005900D92F2
S1130070A83AB107D9F721E0A8EAB1E001C01D927E
S1130080A43CB207E1F70E94AC020C9422080C9441
S1130090000080EB91E00E948F040E94F90181E648
S11300A090E00E9452028091B0010E943D0288B308
S11300B0816088BB61E080EB91E00E94F20288E6F7
S11300C090E00E9452028091B0010E943D022FEF05
S11300D084E39CE0215080409040E1F700C00000A0
S11300E088B38E7F88BB08950E94F9018DE690E065
S11300F00E9452022FEF80E792E02150804090400E
S1130100E1F700C000008CE790E00E94A6048CEBAD
S113011090E00E94A60408950E94F90187EC90E003
S11301200E9452022FEF81EE94E0215080409040D3
S1130130E1F700C0000060E082E00E94FD0182EE71
S113014090E00E9452022FEF84E39CE02150804013
S11301509040E1F700C000000E94F9018EEE90E0AB
S11301600E9452022FE788E391E0215080409040A2
S1130170E1F700C0000008950E94F90189EF90E0C2
S11301800E9452022FEF81EE94E021508040904073
S1130190E1F700C0000060E082E00E94FD0185E01C
S11301A091E00E9452022FEF81EE94E021508040B2
S11301B09040E1F700C000000E94F90185E191E060
S11301C00E94520260E082E00E94FD018FE191E012
S11301D00E9452028091600090E00E947B022FE70F
S11301E08FE492E1215080409040E1F700C000008C
S11301F00895E0E0F0E01182148212828CE083839F
S1130200108215821782168287B3816087BB88B3F8
S11302108E7F88BBCF010E94CE020E948C0008957D
S11302200F931F93CF93DF93CDB7DEB729970FB604
S1130230F894DEBF0FBECDBF00E010E021E031E056
S113024046E050E060E070E880E00E94D10389E479
S113025090E00E94B4040E94740029960FB6F894AA
S1130260DEBF0FBECDBFDF91CF911F910F910895D7
S113027084B3806484BB84B3806884BB0895789419
S11302800E9417020E945E010E9438010E94100120
S11302900E94F90008950E94BC00FDCF84B38160E0
S11302A084BB089588B3877F88BB92B380E4892791
S11302B082BB089582B3805882BB0895CF93DF93A5
S11302C000D000D01F92CDB7DEB781B3806481BB6C
S11302D081B3806881BB88E4898380E38A8383E077
S11302E08D8381E08C8382E08B838AE591E00E9498
S11302F0740382E591E00E947903CE0101960E9485
S113030023038FE790E00E9466030E94F90186E7C9
S113031091E00E9452022FE986E891E0215080404A
S11303209040E1F700C000000E944E010E94F901D4
S113033082E891E00E9452022FE986E891E0215080
S113034080409040E1F700C000000E94A8020E9493
S1130350F90180E991E00E94520260E070E082E0DD
S113036090E00E94FD018EE991E00E9452022FE983
S113037086E891E0215080409040E1F700C0000001
S11303800F900F900F900F900F90DF91CF910895E1
S113039085B3886085BB83ED90E30197F1F700C0D6
S11303A0000085B3877F85BB08951ABA85B384603E
S11303B085BB85B38D7F85BB0E94C8018FEF8ABB47
S11303C085B38D7F85BB0895CF93C82F0E94D50137
S11303D0CBBB85B38D7F85BB85B38B7F85BB89EF15
S11303E090E00197F1F700C000000E94C801CF918E
S11303F0089581E00E94E4010895613190F4813010
S113040039F480E8860F0E94E40181E090E00895C9
S1130410823051F480EC860F0E94E40181E090E088
S1130420089580E090E0089581E090E0089587E8E1
S113043093E10197F1F700C000008FEF8ABB8EE0D3
S113044084BB85B3817F85BB85EA9EE00197F1F784
S113045000C0000088E30E94E40181E00E94E401FE
S113046082E00E94E40186E00E94E40180E80E94A8
S1130470E4018FE00E94E4010895CF93C82F0E9405
S1130480D501CBBB85B3826085BB85B38B7F85BB30
S113049089EF90E00197F1F700C000000E94C801C5
S11304A0CF9108950F931F93CF93DF938C01C0E0F6
S11304B0D0E018C021960F5F1F4F0E943D02C0314B
S11304C0D10529F460E082E00E94FD010BC0C03236
S11304D0D10541F40E94F90160E082E00E94FD012F
S11304E0C0E0D0E0F80180818111E4CFDF91CF91A9
S11304F01F910F9108950F931F93CF93DF93CDB75F
S1130500DEB727970FB6F894DEBF0FBECDBF9F931B
S11305108F9384EA91E09F938F938E010F5F1F4F17
S11305201F930F930E943805C8010E9452020F9036
S11305300F900F900F900F900F9027960FB6F8948E
S1130540DEBF0FBECDBFDF91CF911F910F910895F4
S113055084B38F7D84BB08950E943F010E944B01A8
S113056080E090E00895E091B201F091B3018081C0
S1130570803151F487B3806B87BB87B38F7B87BB94
S113058088B3806488BB089587B3806487BB87B3CE
S11305908F7487BB88B3806B88BB0895CF93DF9338
S11305A0EC019093B3018093B2010E94B3022881BD
S11305B08EB19C81982B9EB98881803111F48981F8
S11305C0282B8A81822B9B81892B9D81903819F459
S11305D09FB790689FBF9D81892B80648DB9DF91FF
S11305E0CF9108958FB9611102C0779BFECF8FB16F
S11305F008951F920F920FB60F9211242F933F93D9
S11306004F935F936F937F938F939F93AF93BF9316
S1130610EF93FF93E091B201F091B3010680F7816B
S1130620E02D0995FF91EF91BF91AF919F918F912B
S11306307F916F915F914F913F912F910F900FBEDA
S11306400F901F901895FC01009709F4089590935A
S1130650B8018093B7018081882331F0883021F07C
S1130660803411F0883409F4282F91819F3F49F098
S1130670903111F4811103C087B3886087BB8181F5
S1130680282B8481883038F4A091B701B091B80147
S113069014968C91282B8281823011F0811107C02D
S11306A0A091B701B091B80112968C91282B838147
S11306B0823040F4E091B701F091B8018381282B96
S11306C080E001C081E012BE23BF0895282F30E0EE
S11306D0AFEFB0E00E94290524E630E040E050E0AE
S11306E00E9407052CBF08959093B6018093B5012D
S11306F008959093BA018093B90108951F920F92BF
S11307000FB60F9211242F933F934F935F936F93E0
S11307107F938F939F93AF93BF93EF93FF93E09156
S1130720B501F091B6010995FF91EF91BF91AF9199
S11307309F918F917F916F915F914F913F912F91F5
S11307400F900FBE0F901F9018951F920F920FB627
S11307500F9211242F933F934F935F936F937F9343
S11307608F939F93AF93BF93EF93FF938091B401C3
S11307708F5F8093B401E091B901F091BA010995BA
S1130780FF91EF91BF91AF919F918F917F916F9165
S11307905F914F913F912F910F900FBE0F901F903B
S11307A01895CF92DF92EF92FF920F931F93CF93FE
S11307B0DF93CDB7DEB729970FB6F894DEBF0FBE2F
S11307C0CDBF09831A832B833C834D835E836F8360
S11307D07887898789E0FE013196ABEBB1E001901F
S11307E00D928A95E1F78091BB01811104C090912B
S11307F0BC01992349F0811104C09091BC0191304E
S113080059F08034C9F410C00F2EF3E3CF2ED12C4D
S1130810E12CF12CF02D10C00F2EF7E6CF2ED12CA9
S1130820E12CF12CF02D08C00F2EFFE9CF2EDD2492
S1130830D394E12CF12CF02DBB27AF2D9E2D8D2DC3
S113084080BDC9B88091BD01813021F48AB188602E
S11308508AB905C0811103C08AB1877F8AB98091A2
S1130860BE01813021F48AB180618AB905C0811149
S113087003C08AB18F7E8AB98091BF018E3019F08E
S1130880806880BD08C08E3031F48370806880BD7C
S11308908AB184608AB98091BB01811107C08091BB
S11308A0BC01813019F48BB182608BB990B5EBEB4C
S11308B0F1E08581892B806880BD90B58081892B8A
S11308C0806880BD90B58681892B806880BD8781D2
S11308D0803819F49AB1892B8AB98091C301803484
S11308E019F49AB1892B8AB929960FB6F894DEBF08
S11308F00FBECDBFDF91CF911F910F91FF90EF906D
S1130900DF90CF9008955D9BFECF2091BF012E30E4
S113091021F42AB19170922B9AB98CB90895FC01F3
S1130920118210825F9BFECF5A990FC08091BF0144
S11309308E3029F48AB186958170108281832CB11E
S113094080819181822B918380830895CF93DF935B
S1130950EC0104C090E00E948304219688818111F7
S1130960F9CFDF91CF9108959093A9018093A801C5
S113097008951F920F920FB60F9211242F933F9355
S11309804F935F936F937F938F939F93AF93BF9393
S1130990EF93FF93E091A801F091A9010995FF91CC
S11309A0EF91BF91AF919F918F917F916F915F91E3
S11309B04F913F912F910F900FBE0F901F9018955C
S11309C01F920F920FB60F9211242F933F934F93C0
S11309D05F936F937F938F939F93AF93BF93EF93A3
S11309E0FF93E091AA01F091AB010995FF91EF917A
S11309F0BF91AF919F918F917F916F915F914F9133
S1130A003F912F910F900FBE0F901F901895A1E268
S1130A101A2EAA1BBB1BFD010DC0AA1FBB1FEE1F74
S1130A20FF1FA217B307E407F50720F0A21BB30BBF
S1130A30E40BF50B661F771F881F991F1A9469F73B
S1130A4060957095809590959B01AC01BD01CF0197
S1130A500895A29FB001B39FC001A39F700D811D93
S1130A601124911DB29F700D811D1124911D0895B3
S1130A70AEE0B0E0EEE3F5E00C94F9070D891E89D1
S1130A8086E08C831A8309838FEF9FE79E838D838F
S1130A90AE01475E5F4F6F89788DCE0101960E944B
S1130AA05A05EF81F885E00FF11F10822E96E4E0DD
S1130AB00C941508ABE0B0E0E0E6F5E00C94EB072D
S1130AC06C017B018A01FC0117821682838181FFFC
S1130AD0CCC1CE0101963C01F6019381F70193FD4F
S1130AE0859193FF81917F01882309F4BAC18532EE
S1130AF039F493FD859193FF81917F01853229F427
S1130B00B60190E00E945107E7CF912C212C312CA3
S1130B10FFE1F315D8F08B3279F038F4803279F0B4
S1130B208332A1F4232D20611DC08D3261F0803306
S1130B3069F4232D216016C0832D8260382EE32DA5
S1130B40E4603E2E2AC0F32DF8601DC037FC2DC092
S1130B5020ED280F2A3040F08E32B9F436FC81C1E2
S1130B60232D2064322E19C036FE06C08AE0989EDA
S1130B70200D1124922E11C0EAE02E9E200D112486
S1130B80222EF32DF0623F2E08C08C3621F4832DE3
S1130B908068382E02C0883641F4F70193FD8591B0
S1130BA093FF81917F018111B3CF982F9F7D95543D
S1130BB0933028F40C5F1F4F9FE399830DC0833655
S1130BC031F0833771F0833509F059C021C0F80141
S1130BD0808189830E5F1F4F88248394912C530155
S1130BE013C02801F2E04F0E511CF801A080B1801F
S1130BF036FE03C0692D70E002C06FEF7FEFC501C0
S1130C000E9446074C018201F32DFF773F2E16C048
S1130C10280122E0420E511CF801A080B18036FE6A
S1130C2003C0692D70E002C06FEF7FEFC5010E9421
S1130C303B074C01F32DF0683F2E820133FC1BC0AF
S1130C40822D90E088169906B0F4B60180E290E017
S1130C500E9451072A94F4CFF50137FC859137FEA1
S1130C6081915F01B60190E00E94510721102A94FE
S1130C7021E0821A91088114910471F7E8C0843646
S1130C8011F0893641F5F80137FE07C060817181A2
S1130C90828193810C5F1F4F08C060817181072E90
S1130CA0000C880B990B0E5F1F4FF32DFF763F2E20
S1130CB097FF09C090958095709561957F4F8F4FF0
S1130CC09F4FF0683F2E2AE030E0A3010E948D0779
S1130CD0882E861845C0853731F4232D2F7EB22EF9
S1130CE02AE030E025C0932D997FB92E8F36C1F0CC
S1130CF018F4883579F0B5C0803719F0883721F0B9
S1130D00B0C0E92FE061BE2EB4FE0DC0FB2DF4602F
S1130D10BF2E09C034FE0AC0292F2660B22E06C099
S1130D2028E030E005C020E130E002C020E132E0FC
S1130D30F801B7FE07C060817181828193810C5FE5
S1130D401F4F06C06081718180E090E00E5F1F4FED
S1130D50A3010E948D07882E8618FB2DFF773F2E56
S1130D6036FE0DC0232D2E7FA22E891458F434FE96
S1130D700BC032FC09C0832D8E7EA82E05C0B82C72
S1130D80A32C03C0B82C01C0B92CA4FE0FC0FE01D3
S1130D90E80DF11D8081803321F49A2D997EA92ECE
S1130DA009C0A2FE06C0B394B39404C08A2D867809
S1130DB009F0B394A3FC11C0A0FE06C0B21488F4D9
S1130DC0280C922C9B180EC0B21460F4B60180E279
S1130DD090E00E945107B394F7CFB21418F42B1883
S1130DE002C0982C212CA4FE10C0B60180E390E030
S1130DF00E945107A2FE17C0A1FC03C088E790E03F
S1130E0002C088E590E0B6010CC08A2D867859F0BE
S1130E10A1FE02C08BE201C080E2A7FC8DE2B60114
S1130E2090E00E945107891438F4B60180E390E001
S1130E300E9451079A94F7CF8A94F301E80DF11DAB
S1130E408081B60190E00E9451078110F5CF2220E5
S1130E5009F442CEB60180E290E00E9451072A9440
S1130E60F6CFF6018681978102C08FEF9FEF2B9614
S1130E70E2E10C940708FC010590615070400110F8
S1130E80D8F7809590958E0F9F1F0895FC016150AF
S1130E90704001900110D8F7809590958E0F9F1F98
S1130EA008950F931F93CF93DF93FB01238121FDBB
S1130EB003C08FEF9FEF2CC022FF16C046815781DD
S1130EC0248135814217530744F4A081B1819D01E7
S1130ED02F5F3F4F318320838C93268137812F5F8F
S1130EE03F4F3783268314C08B01EC01FB01008440
S1130EF0F185E02D0995892BE1F6D80116968D919F
S1130F009C911797019617969C938E931697CE01F2
S1130F10DF91CF911F910F910895FA01AA272830EC
S1130F2051F1203181F1E8946F936E7F6E5F7F4FB2
S1130F308F4F9F4FAF4FB1E03ED0B4E03CD0670F2E
S1130F40781F891F9A1FA11D680F791F8A1F911D81
S1130F50A11D6A0F711D811D911DA11D20D009F4D1
S1130F6068943F912AE0269F11243019305D319313
S1130F70DEF6CF010895462F4770405D4193B3E0FC
S1130F800FD0C9F7F6CF462F4F70405D4A3318F0A3
S1130F90495D31FD4052419302D0A9F7EACFB4E054
S1130FA0A6959795879577956795BA95C9F700970C
S1130FB06105710508959B01AC010A2E06945795AD
S1130FC0479537952795BA95C9F7620F731F841F04
S1130FD0951FA01D08952F923F924F925F926F929A
S1130FE07F928F929F92AF92BF92CF92DF92EF92B5
S1130FF0FF920F931F93CF93DF93CDB7DEB7CA1B36
S1131000DB0B0FB6F894DEBF0FBECDBF09942A8860
S1131010398848885F846E847D848C849B84AA8408
S1131020B984C884DF80EE80FD800C811B81AA8195
S1131030B981CE0FD11D0FB6F894DEBF0FBECDBF60
S10B1040ED010895F894FFCFBF
S11310480353656E743A20002D523A2000554152DC
S11310585420697320524541445920000D0A2A2A14
S11310682A2A2A2A2A2A2A2A2A2A2A2A2A2A2057B1
S1131078454C434F4D4520544F2045544348204741
S11310884152414745203A29202A2A2A2A2A2A2A2B
S11310982A2A2A2A2A2A2A2A2A0D0A00456E746527
S11310A8722049443A20005350492069732052451C
S11310B841445920004D4F44453A204D415354452D
S11310C852004D4F44453A20534C41564500526511
S11310D86365697665643A200057656C636F6D656E
S11310E8205369720049276D2052454144592E2ED8
S11310F82E203A2900417661696C61626C6500535F
S11311086C6F74733A200056616C696420416363A0
S1131118657373004F70656E696E67204761746507
S113112800506C656173652C004D6F766520596FAE
S1131138757220436172203A2900436C6F73696E9B
S113114867204761746500496E76616C6964204163
S1131158636365737300476174652052454144595C
S1131168200042757A7A657220524541445920001C
S11311784D6F74696F6E2053656E736F720052659C
S10B1188616479002564000094
S9030000FC
